{
  "_format": "hh-sol-artifact-1",
  "contractName": "FrejaPug",
  "sourceName": "contracts/FRJP.sol",
  "abi": [
    {
      "inputs": [],
      "stateMutability": "nonpayable",
      "type": "constructor"
    },
    {
      "anonymous": false,
      "inputs": [
        {
          "indexed": true,
          "internalType": "address",
          "name": "owner",
          "type": "address"
        },
        {
          "indexed": true,
          "internalType": "address",
          "name": "approved",
          "type": "address"
        },
        {
          "indexed": true,
          "internalType": "uint256",
          "name": "tokenId",
          "type": "uint256"
        }
      ],
      "name": "Approval",
      "type": "event"
    },
    {
      "anonymous": false,
      "inputs": [
        {
          "indexed": true,
          "internalType": "address",
          "name": "owner",
          "type": "address"
        },
        {
          "indexed": true,
          "internalType": "address",
          "name": "operator",
          "type": "address"
        },
        {
          "indexed": false,
          "internalType": "bool",
          "name": "approved",
          "type": "bool"
        }
      ],
      "name": "ApprovalForAll",
      "type": "event"
    },
    {
      "anonymous": false,
      "inputs": [
        {
          "indexed": true,
          "internalType": "address",
          "name": "previousOwner",
          "type": "address"
        },
        {
          "indexed": true,
          "internalType": "address",
          "name": "newOwner",
          "type": "address"
        }
      ],
      "name": "OwnershipTransferred",
      "type": "event"
    },
    {
      "anonymous": false,
      "inputs": [
        {
          "indexed": true,
          "internalType": "address",
          "name": "from",
          "type": "address"
        },
        {
          "indexed": true,
          "internalType": "address",
          "name": "to",
          "type": "address"
        },
        {
          "indexed": true,
          "internalType": "uint256",
          "name": "tokenId",
          "type": "uint256"
        }
      ],
      "name": "Transfer",
      "type": "event"
    },
    {
      "inputs": [
        {
          "internalType": "address",
          "name": "to",
          "type": "address"
        },
        {
          "internalType": "uint256",
          "name": "tokenId",
          "type": "uint256"
        }
      ],
      "name": "approve",
      "outputs": [],
      "stateMutability": "nonpayable",
      "type": "function"
    },
    {
      "inputs": [
        {
          "internalType": "address",
          "name": "owner",
          "type": "address"
        }
      ],
      "name": "balanceOf",
      "outputs": [
        {
          "internalType": "uint256",
          "name": "",
          "type": "uint256"
        }
      ],
      "stateMutability": "view",
      "type": "function"
    },
    {
      "inputs": [],
      "name": "count",
      "outputs": [
        {
          "internalType": "uint256",
          "name": "",
          "type": "uint256"
        }
      ],
      "stateMutability": "view",
      "type": "function"
    },
    {
      "inputs": [
        {
          "internalType": "uint256",
          "name": "tokenId",
          "type": "uint256"
        }
      ],
      "name": "getApproved",
      "outputs": [
        {
          "internalType": "address",
          "name": "",
          "type": "address"
        }
      ],
      "stateMutability": "view",
      "type": "function"
    },
    {
      "inputs": [
        {
          "internalType": "address",
          "name": "owner",
          "type": "address"
        },
        {
          "internalType": "address",
          "name": "operator",
          "type": "address"
        }
      ],
      "name": "isApprovedForAll",
      "outputs": [
        {
          "internalType": "bool",
          "name": "",
          "type": "bool"
        }
      ],
      "stateMutability": "view",
      "type": "function"
    },
    {
      "inputs": [
        {
          "internalType": "string",
          "name": "uri",
          "type": "string"
        }
      ],
      "name": "isContentOwned",
      "outputs": [
        {
          "internalType": "bool",
          "name": "",
          "type": "bool"
        }
      ],
      "stateMutability": "view",
      "type": "function"
    },
    {
      "inputs": [],
      "name": "name",
      "outputs": [
        {
          "internalType": "string",
          "name": "",
          "type": "string"
        }
      ],
      "stateMutability": "view",
      "type": "function"
    },
    {
      "inputs": [],
      "name": "owner",
      "outputs": [
        {
          "internalType": "address",
          "name": "",
          "type": "address"
        }
      ],
      "stateMutability": "view",
      "type": "function"
    },
    {
      "inputs": [
        {
          "internalType": "uint256",
          "name": "tokenId",
          "type": "uint256"
        }
      ],
      "name": "ownerOf",
      "outputs": [
        {
          "internalType": "address",
          "name": "",
          "type": "address"
        }
      ],
      "stateMutability": "view",
      "type": "function"
    },
    {
      "inputs": [
        {
          "internalType": "address",
          "name": "recipient",
          "type": "address"
        },
        {
          "internalType": "string",
          "name": "metadataURI",
          "type": "string"
        }
      ],
      "name": "payToMint",
      "outputs": [
        {
          "internalType": "uint256",
          "name": "",
          "type": "uint256"
        }
      ],
      "stateMutability": "payable",
      "type": "function"
    },
    {
      "inputs": [],
      "name": "renounceOwnership",
      "outputs": [],
      "stateMutability": "nonpayable",
      "type": "function"
    },
    {
      "inputs": [
        {
          "internalType": "address",
          "name": "to",
          "type": "address"
        },
        {
          "internalType": "string",
          "name": "uri",
          "type": "string"
        }
      ],
      "name": "safeMint",
      "outputs": [],
      "stateMutability": "nonpayable",
      "type": "function"
    },
    {
      "inputs": [
        {
          "internalType": "address",
          "name": "from",
          "type": "address"
        },
        {
          "internalType": "address",
          "name": "to",
          "type": "address"
        },
        {
          "internalType": "uint256",
          "name": "tokenId",
          "type": "uint256"
        }
      ],
      "name": "safeTransferFrom",
      "outputs": [],
      "stateMutability": "nonpayable",
      "type": "function"
    },
    {
      "inputs": [
        {
          "internalType": "address",
          "name": "from",
          "type": "address"
        },
        {
          "internalType": "address",
          "name": "to",
          "type": "address"
        },
        {
          "internalType": "uint256",
          "name": "tokenId",
          "type": "uint256"
        },
        {
          "internalType": "bytes",
          "name": "_data",
          "type": "bytes"
        }
      ],
      "name": "safeTransferFrom",
      "outputs": [],
      "stateMutability": "nonpayable",
      "type": "function"
    },
    {
      "inputs": [
        {
          "internalType": "address",
          "name": "operator",
          "type": "address"
        },
        {
          "internalType": "bool",
          "name": "approved",
          "type": "bool"
        }
      ],
      "name": "setApprovalForAll",
      "outputs": [],
      "stateMutability": "nonpayable",
      "type": "function"
    },
    {
      "inputs": [
        {
          "internalType": "bytes4",
          "name": "interfaceId",
          "type": "bytes4"
        }
      ],
      "name": "supportsInterface",
      "outputs": [
        {
          "internalType": "bool",
          "name": "",
          "type": "bool"
        }
      ],
      "stateMutability": "view",
      "type": "function"
    },
    {
      "inputs": [],
      "name": "symbol",
      "outputs": [
        {
          "internalType": "string",
          "name": "",
          "type": "string"
        }
      ],
      "stateMutability": "view",
      "type": "function"
    },
    {
      "inputs": [
        {
          "internalType": "uint256",
          "name": "tokenId",
          "type": "uint256"
        }
      ],
      "name": "tokenURI",
      "outputs": [
        {
          "internalType": "string",
          "name": "",
          "type": "string"
        }
      ],
      "stateMutability": "view",
      "type": "function"
    },
    {
      "inputs": [
        {
          "internalType": "address",
          "name": "from",
          "type": "address"
        },
        {
          "internalType": "address",
          "name": "to",
          "type": "address"
        },
        {
          "internalType": "uint256",
          "name": "tokenId",
          "type": "uint256"
        }
      ],
      "name": "transferFrom",
      "outputs": [],
      "stateMutability": "nonpayable",
      "type": "function"
    },
    {
      "inputs": [
        {
          "internalType": "address",
          "name": "newOwner",
          "type": "address"
        }
      ],
      "name": "transferOwnership",
      "outputs": [],
      "stateMutability": "nonpayable",
      "type": "function"
    }
  ],
  "bytecode": "0x60806040523480156200001157600080fd5b506040518060400160405280600881526020017f4672656a615075670000000000000000000000000000000000000000000000008152506040518060400160405280600481526020017f46524a5000000000000000000000000000000000000000000000000000000000815250816000908051906020019062000096929190620001a6565b508060019080519060200190620000af929190620001a6565b505050620000d2620000c6620000d860201b60201c565b620000e060201b60201c565b620002bb565b600033905090565b6000600760009054906101000a900473ffffffffffffffffffffffffffffffffffffffff16905081600760006101000a81548173ffffffffffffffffffffffffffffffffffffffff021916908373ffffffffffffffffffffffffffffffffffffffff1602179055508173ffffffffffffffffffffffffffffffffffffffff168173ffffffffffffffffffffffffffffffffffffffff167f8be0079c531659141344cd1fd0a4f28419497f9722a3daafe3b4186f6b6457e060405160405180910390a35050565b828054620001b49062000256565b90600052602060002090601f016020900481019282620001d8576000855562000224565b82601f10620001f357805160ff191683800117855562000224565b8280016001018555821562000224579182015b828111156200022357825182559160200191906001019062000206565b5b50905062000233919062000237565b5090565b5b808211156200025257600081600090555060010162000238565b5090565b600060028204905060018216806200026f57607f821691505b602082108114156200028657620002856200028c565b5b50919050565b7f4e487b7100000000000000000000000000000000000000000000000000000000600052602260045260246000fd5b6134af80620002cb6000396000f3fe60806040526004361061011f5760003560e01c8063715018a6116100a0578063b88d4fde11610064578063b88d4fde146103ec578063c87b56dd14610415578063d204c45e14610452578063e985e9c51461047b578063f2fde38b146104b85761011f565b8063715018a6146103195780638da5cb5b1461033057806395d89b411461035b5780639f1cabc614610386578063a22cb465146103c35761011f565b806323b872dd116100e757806323b872dd1461021d57806342842e0e14610246578063615fd9e21461026f5780636352211e1461029f57806370a08231146102dc5761011f565b806301ffc9a71461012457806306661abd1461016157806306fdde031461018c578063081812fc146101b7578063095ea7b3146101f4575b600080fd5b34801561013057600080fd5b5061014b6004803603810190610146919061232e565b6104e1565b6040516101589190612818565b60405180910390f35b34801561016d57600080fd5b506101766105c3565b6040516101839190612ad5565b60405180910390f35b34801561019857600080fd5b506101a16105d4565b6040516101ae9190612833565b60405180910390f35b3480156101c357600080fd5b506101de60048036038101906101d991906123c1565b610666565b6040516101eb91906127b1565b60405180910390f35b34801561020057600080fd5b5061021b600480360381019061021691906122f2565b6106eb565b005b34801561022957600080fd5b50610244600480360381019061023f9190612198565b610803565b005b34801561025257600080fd5b5061026d60048036038101906102689190612198565b610863565b005b6102896004803603810190610284919061229e565b610883565b6040516102969190612ad5565b60405180910390f35b3480156102ab57600080fd5b506102c660048036038101906102c191906123c1565b6109ae565b6040516102d391906127b1565b60405180910390f35b3480156102e857600080fd5b5061030360048036038101906102fe9190612133565b610a60565b6040516103109190612ad5565b60405180910390f35b34801561032557600080fd5b5061032e610b18565b005b34801561033c57600080fd5b50610345610ba0565b60405161035291906127b1565b60405180910390f35b34801561036757600080fd5b50610370610bca565b60405161037d9190612833565b60405180910390f35b34801561039257600080fd5b506103ad60048036038101906103a89190612380565b610c5c565b6040516103ba9190612818565b60405180910390f35b3480156103cf57600080fd5b506103ea60048036038101906103e59190612262565b610c97565b005b3480156103f857600080fd5b50610413600480360381019061040e91906121e7565b610cad565b005b34801561042157600080fd5b5061043c600480360381019061043791906123c1565b610d0f565b6040516104499190612833565b60405180910390f35b34801561045e57600080fd5b506104796004803603810190610474919061229e565b610d21565b005b34801561048757600080fd5b506104a2600480360381019061049d919061215c565b610dce565b6040516104af9190612818565b60405180910390f35b3480156104c457600080fd5b506104df60048036038101906104da9190612133565b610e62565b005b60007f80ac58cd000000000000000000000000000000000000000000000000000000007bffffffffffffffffffffffffffffffffffffffffffffffffffffffff1916827bffffffffffffffffffffffffffffffffffffffffffffffffffffffff191614806105ac57507f5b5e139f000000000000000000000000000000000000000000000000000000007bffffffffffffffffffffffffffffffffffffffffffffffffffffffff1916827bffffffffffffffffffffffffffffffffffffffffffffffffffffffff1916145b806105bc57506105bb82610f5a565b5b9050919050565b60006105cf6009610fc4565b905090565b6060600080546105e390612d2b565b80601f016020809104026020016040519081016040528092919081815260200182805461060f90612d2b565b801561065c5780601f106106315761010080835404028352916020019161065c565b820191906000526020600020905b81548152906001019060200180831161063f57829003601f168201915b5050505050905090565b600061067182610fd2565b6106b0576040517f08c379a00000000000000000000000000000000000000000000000000000000081526004016106a790612a15565b60405180910390fd5b6004600083815260200190815260200160002060009054906101000a900473ffffffffffffffffffffffffffffffffffffffff169050919050565b60006106f6826109ae565b90508073ffffffffffffffffffffffffffffffffffffffff168373ffffffffffffffffffffffffffffffffffffffff161415610767576040517f08c379a000000000000000000000000000000000000000000000000000000000815260040161075e90612a75565b60405180910390fd5b8073ffffffffffffffffffffffffffffffffffffffff1661078661103e565b73ffffffffffffffffffffffffffffffffffffffff1614806107b557506107b4816107af61103e565b610dce565b5b6107f4576040517f08c379a00000000000000000000000000000000000000000000000000000000081526004016107eb90612955565b60405180910390fd5b6107fe8383611046565b505050565b61081461080e61103e565b826110ff565b610853576040517f08c379a000000000000000000000000000000000000000000000000000000000815260040161084a90612a95565b60405180910390fd5b61085e8383836111dd565b505050565b61087e83838360405180602001604052806000815250610cad565b505050565b600060016008836040516108979190612776565b908152602001604051809103902060009054906101000a900460ff1660ff1614156108f7576040517f08c379a00000000000000000000000000000000000000000000000000000000081526004016108ee906128f5565b60405180910390fd5b66b1a2bc2ec500003411610940576040517f08c379a000000000000000000000000000000000000000000000000000000000815260040161093790612ab5565b60405180910390fd5b600061094c6009610fc4565b90506109586009611444565b600160088460405161096a9190612776565b908152602001604051809103902060006101000a81548160ff021916908360ff16021790555061099a848261145a565b6109a48184611634565b8091505092915050565b6000806002600084815260200190815260200160002060009054906101000a900473ffffffffffffffffffffffffffffffffffffffff169050600073ffffffffffffffffffffffffffffffffffffffff168173ffffffffffffffffffffffffffffffffffffffff161415610a57576040517f08c379a0000000000000000000000000000000000000000000000000000000008152600401610a4e90612995565b60405180910390fd5b80915050919050565b60008073ffffffffffffffffffffffffffffffffffffffff168273ffffffffffffffffffffffffffffffffffffffff161415610ad1576040517f08c379a0000000000000000000000000000000000000000000000000000000008152600401610ac890612975565b60405180910390fd5b600360008373ffffffffffffffffffffffffffffffffffffffff1673ffffffffffffffffffffffffffffffffffffffff168152602001908152602001600020549050919050565b610b2061103e565b73ffffffffffffffffffffffffffffffffffffffff16610b3e610ba0565b73ffffffffffffffffffffffffffffffffffffffff1614610b94576040517f08c379a0000000000000000000000000000000000000000000000000000000008152600401610b8b90612a35565b60405180910390fd5b610b9e60006116a8565b565b6000600760009054906101000a900473ffffffffffffffffffffffffffffffffffffffff16905090565b606060018054610bd990612d2b565b80601f0160208091040260200160405190810160405280929190818152602001828054610c0590612d2b565b8015610c525780601f10610c2757610100808354040283529160200191610c52565b820191906000526020600020905b815481529060010190602001808311610c3557829003601f168201915b5050505050905090565b60006001600883604051610c709190612776565b908152602001604051809103902060009054906101000a900460ff1660ff16149050919050565b610ca9610ca261103e565b838361176e565b5050565b610cbe610cb861103e565b836110ff565b610cfd576040517f08c379a0000000000000000000000000000000000000000000000000000000008152600401610cf490612a95565b60405180910390fd5b610d09848484846118db565b50505050565b6060610d1a82611937565b9050919050565b610d2961103e565b73ffffffffffffffffffffffffffffffffffffffff16610d47610ba0565b73ffffffffffffffffffffffffffffffffffffffff1614610d9d576040517f08c379a0000000000000000000000000000000000000000000000000000000008152600401610d9490612a35565b60405180910390fd5b6000610da96009610fc4565b9050610db56009611444565b610dbf8382611a89565b610dc98183611634565b505050565b6000600560008473ffffffffffffffffffffffffffffffffffffffff1673ffffffffffffffffffffffffffffffffffffffff16815260200190815260200160002060008373ffffffffffffffffffffffffffffffffffffffff1673ffffffffffffffffffffffffffffffffffffffff16815260200190815260200160002060009054906101000a900460ff16905092915050565b610e6a61103e565b73ffffffffffffffffffffffffffffffffffffffff16610e88610ba0565b73ffffffffffffffffffffffffffffffffffffffff1614610ede576040517f08c379a0000000000000000000000000000000000000000000000000000000008152600401610ed590612a35565b60405180910390fd5b600073ffffffffffffffffffffffffffffffffffffffff168173ffffffffffffffffffffffffffffffffffffffff161415610f4e576040517f08c379a0000000000000000000000000000000000000000000000000000000008152600401610f4590612875565b60405180910390fd5b610f57816116a8565b50565b60007f01ffc9a7000000000000000000000000000000000000000000000000000000007bffffffffffffffffffffffffffffffffffffffffffffffffffffffff1916827bffffffffffffffffffffffffffffffffffffffffffffffffffffffff1916149050919050565b600081600001549050919050565b60008073ffffffffffffffffffffffffffffffffffffffff166002600084815260200190815260200160002060009054906101000a900473ffffffffffffffffffffffffffffffffffffffff1673ffffffffffffffffffffffffffffffffffffffff1614159050919050565b600033905090565b816004600083815260200190815260200160002060006101000a81548173ffffffffffffffffffffffffffffffffffffffff021916908373ffffffffffffffffffffffffffffffffffffffff160217905550808273ffffffffffffffffffffffffffffffffffffffff166110b9836109ae565b73ffffffffffffffffffffffffffffffffffffffff167f8c5be1e5ebec7d5bd14f71427d1e84f3dd0314c0f7b2291e5b200ac8c7c3b92560405160405180910390a45050565b600061110a82610fd2565b611149576040517f08c379a000000000000000000000000000000000000000000000000000000000815260040161114090612935565b60405180910390fd5b6000611154836109ae565b90508073ffffffffffffffffffffffffffffffffffffffff168473ffffffffffffffffffffffffffffffffffffffff1614806111c357508373ffffffffffffffffffffffffffffffffffffffff166111ab84610666565b73ffffffffffffffffffffffffffffffffffffffff16145b806111d457506111d38185610dce565b5b91505092915050565b8273ffffffffffffffffffffffffffffffffffffffff166111fd826109ae565b73ffffffffffffffffffffffffffffffffffffffff1614611253576040517f08c379a000000000000000000000000000000000000000000000000000000000815260040161124a90612895565b60405180910390fd5b600073ffffffffffffffffffffffffffffffffffffffff168273ffffffffffffffffffffffffffffffffffffffff1614156112c3576040517f08c379a00000000000000000000000000000000000000000000000000000000081526004016112ba906128d5565b60405180910390fd5b6112ce838383611aa7565b6112d9600082611046565b6001600360008573ffffffffffffffffffffffffffffffffffffffff1673ffffffffffffffffffffffffffffffffffffffff16815260200190815260200160002060008282546113299190612c41565b925050819055506001600360008473ffffffffffffffffffffffffffffffffffffffff1673ffffffffffffffffffffffffffffffffffffffff16815260200190815260200160002060008282546113809190612bba565b92505081905550816002600083815260200190815260200160002060006101000a81548173ffffffffffffffffffffffffffffffffffffffff021916908373ffffffffffffffffffffffffffffffffffffffff160217905550808273ffffffffffffffffffffffffffffffffffffffff168473ffffffffffffffffffffffffffffffffffffffff167fddf252ad1be2c89b69c2b068fc378daa952ba7f163c4a11628f55a4df523b3ef60405160405180910390a461143f838383611aac565b505050565b6001816000016000828254019250508190555050565b600073ffffffffffffffffffffffffffffffffffffffff168273ffffffffffffffffffffffffffffffffffffffff1614156114ca576040517f08c379a00000000000000000000000000000000000000000000000000000000081526004016114c1906129d5565b60405180910390fd5b6114d381610fd2565b15611513576040517f08c379a000000000000000000000000000000000000000000000000000000000815260040161150a906128b5565b60405180910390fd5b61151f60008383611aa7565b6001600360008473ffffffffffffffffffffffffffffffffffffffff1673ffffffffffffffffffffffffffffffffffffffff168152602001908152602001600020600082825461156f9190612bba565b92505081905550816002600083815260200190815260200160002060006101000a81548173ffffffffffffffffffffffffffffffffffffffff021916908373ffffffffffffffffffffffffffffffffffffffff160217905550808273ffffffffffffffffffffffffffffffffffffffff16600073ffffffffffffffffffffffffffffffffffffffff167fddf252ad1be2c89b69c2b068fc378daa952ba7f163c4a11628f55a4df523b3ef60405160405180910390a461163060008383611aac565b5050565b61163d82610fd2565b61167c576040517f08c379a0000000000000000000000000000000000000000000000000000000008152600401611673906129b5565b60405180910390fd5b806006600084815260200190815260200160002090805190602001906116a3929190611f57565b505050565b6000600760009054906101000a900473ffffffffffffffffffffffffffffffffffffffff16905081600760006101000a81548173ffffffffffffffffffffffffffffffffffffffff021916908373ffffffffffffffffffffffffffffffffffffffff1602179055508173ffffffffffffffffffffffffffffffffffffffff168173ffffffffffffffffffffffffffffffffffffffff167f8be0079c531659141344cd1fd0a4f28419497f9722a3daafe3b4186f6b6457e060405160405180910390a35050565b8173ffffffffffffffffffffffffffffffffffffffff168373ffffffffffffffffffffffffffffffffffffffff1614156117dd576040517f08c379a00000000000000000000000000000000000000000000000000000000081526004016117d490612915565b60405180910390fd5b80600560008573ffffffffffffffffffffffffffffffffffffffff1673ffffffffffffffffffffffffffffffffffffffff16815260200190815260200160002060008473ffffffffffffffffffffffffffffffffffffffff1673ffffffffffffffffffffffffffffffffffffffff16815260200190815260200160002060006101000a81548160ff0219169083151502179055508173ffffffffffffffffffffffffffffffffffffffff168373ffffffffffffffffffffffffffffffffffffffff167f17307eab39ab6107e8899845ad3d59bd9653f200f220920489ca2b5937696c31836040516118ce9190612818565b60405180910390a3505050565b6118e68484846111dd565b6118f284848484611ab1565b611931576040517f08c379a000000000000000000000000000000000000000000000000000000000815260040161192890612855565b60405180910390fd5b50505050565b606061194282610fd2565b611981576040517f08c379a0000000000000000000000000000000000000000000000000000000008152600401611978906129f5565b60405180910390fd5b60006006600084815260200190815260200160002080546119a190612d2b565b80601f01602080910402602001604051908101604052809291908181526020018280546119cd90612d2b565b8015611a1a5780601f106119ef57610100808354040283529160200191611a1a565b820191906000526020600020905b8154815290600101906020018083116119fd57829003601f168201915b505050505090506000611a2b611c48565b9050600081511415611a41578192505050611a84565b600082511115611a76578082604051602001611a5e92919061278d565b60405160208183030381529060405292505050611a84565b611a7f84611c85565b925050505b919050565b611aa3828260405180602001604052806000815250611d2c565b5050565b505050565b505050565b6000611ad28473ffffffffffffffffffffffffffffffffffffffff16611d87565b15611c3b578373ffffffffffffffffffffffffffffffffffffffff1663150b7a02611afb61103e565b8786866040518563ffffffff1660e01b8152600401611b1d94939291906127cc565b602060405180830381600087803b158015611b3757600080fd5b505af1925050508015611b6857506040513d601f19601f82011682018060405250810190611b659190612357565b60015b611beb573d8060008114611b98576040519150601f19603f3d011682016040523d82523d6000602084013e611b9d565b606091505b50600081511415611be3576040517f08c379a0000000000000000000000000000000000000000000000000000000008152600401611bda90612855565b60405180910390fd5b805181602001fd5b63150b7a0260e01b7bffffffffffffffffffffffffffffffffffffffffffffffffffffffff1916817bffffffffffffffffffffffffffffffffffffffffffffffffffffffff191614915050611c40565b600190505b949350505050565b60606040518060400160405280600781526020017f697066733a2f2f00000000000000000000000000000000000000000000000000815250905090565b6060611c9082610fd2565b611ccf576040517f08c379a0000000000000000000000000000000000000000000000000000000008152600401611cc690612a55565b60405180910390fd5b6000611cd9611c48565b90506000815111611cf95760405180602001604052806000815250611d24565b80611d0384611daa565b604051602001611d1492919061278d565b6040516020818303038152906040525b915050919050565b611d36838361145a565b611d436000848484611ab1565b611d82576040517f08c379a0000000000000000000000000000000000000000000000000000000008152600401611d7990612855565b60405180910390fd5b505050565b6000808273ffffffffffffffffffffffffffffffffffffffff163b119050919050565b60606000821415611df2576040518060400160405280600181526020017f30000000000000000000000000000000000000000000000000000000000000008152509050611f52565b600082905060005b60008214611e24578080611e0d90612d8e565b915050600a82611e1d9190612c10565b9150611dfa565b60008167ffffffffffffffff811115611e66577f4e487b7100000000000000000000000000000000000000000000000000000000600052604160045260246000fd5b6040519080825280601f01601f191660200182016040528015611e985781602001600182028036833780820191505090505b5090505b60008514611f4b57600182611eb19190612c41565b9150600a85611ec09190612dd7565b6030611ecc9190612bba565b60f81b818381518110611f08577f4e487b7100000000000000000000000000000000000000000000000000000000600052603260045260246000fd5b60200101907effffffffffffffffffffffffffffffffffffffffffffffffffffffffffffff1916908160001a905350600a85611f449190612c10565b9450611e9c565b8093505050505b919050565b828054611f6390612d2b565b90600052602060002090601f016020900481019282611f855760008555611fcc565b82601f10611f9e57805160ff1916838001178555611fcc565b82800160010185558215611fcc579182015b82811115611fcb578251825591602001919060010190611fb0565b5b509050611fd99190611fdd565b5090565b5b80821115611ff6576000816000905550600101611fde565b5090565b600061200d61200884612b15565b612af0565b90508281526020810184848401111561202557600080fd5b612030848285612ce9565b509392505050565b600061204b61204684612b46565b612af0565b90508281526020810184848401111561206357600080fd5b61206e848285612ce9565b509392505050565b6000813590506120858161341d565b92915050565b60008135905061209a81613434565b92915050565b6000813590506120af8161344b565b92915050565b6000815190506120c48161344b565b92915050565b600082601f8301126120db57600080fd5b81356120eb848260208601611ffa565b91505092915050565b600082601f83011261210557600080fd5b8135612115848260208601612038565b91505092915050565b60008135905061212d81613462565b92915050565b60006020828403121561214557600080fd5b600061215384828501612076565b91505092915050565b6000806040838503121561216f57600080fd5b600061217d85828601612076565b925050602061218e85828601612076565b9150509250929050565b6000806000606084860312156121ad57600080fd5b60006121bb86828701612076565b93505060206121cc86828701612076565b92505060406121dd8682870161211e565b9150509250925092565b600080600080608085870312156121fd57600080fd5b600061220b87828801612076565b945050602061221c87828801612076565b935050604061222d8782880161211e565b925050606085013567ffffffffffffffff81111561224a57600080fd5b612256878288016120ca565b91505092959194509250565b6000806040838503121561227557600080fd5b600061228385828601612076565b92505060206122948582860161208b565b9150509250929050565b600080604083850312156122b157600080fd5b60006122bf85828601612076565b925050602083013567ffffffffffffffff8111156122dc57600080fd5b6122e8858286016120f4565b9150509250929050565b6000806040838503121561230557600080fd5b600061231385828601612076565b92505060206123248582860161211e565b9150509250929050565b60006020828403121561234057600080fd5b600061234e848285016120a0565b91505092915050565b60006020828403121561236957600080fd5b6000612377848285016120b5565b91505092915050565b60006020828403121561239257600080fd5b600082013567ffffffffffffffff8111156123ac57600080fd5b6123b8848285016120f4565b91505092915050565b6000602082840312156123d357600080fd5b60006123e18482850161211e565b91505092915050565b6123f381612c75565b82525050565b61240281612c87565b82525050565b600061241382612b77565b61241d8185612b8d565b935061242d818560208601612cf8565b61243681612ec4565b840191505092915050565b600061244c82612b82565b6124568185612b9e565b9350612466818560208601612cf8565b61246f81612ec4565b840191505092915050565b600061248582612b82565b61248f8185612baf565b935061249f818560208601612cf8565b80840191505092915050565b60006124b8603283612b9e565b91506124c382612ed5565b604082019050919050565b60006124db602683612b9e565b91506124e682612f24565b604082019050919050565b60006124fe602583612b9e565b915061250982612f73565b604082019050919050565b6000612521601c83612b9e565b915061252c82612fc2565b602082019050919050565b6000612544602483612b9e565b915061254f82612feb565b604082019050919050565b6000612567601283612b9e565b91506125728261303a565b602082019050919050565b600061258a601983612b9e565b915061259582613063565b602082019050919050565b60006125ad602c83612b9e565b91506125b88261308c565b604082019050919050565b60006125d0603883612b9e565b91506125db826130db565b604082019050919050565b60006125f3602a83612b9e565b91506125fe8261312a565b604082019050919050565b6000612616602983612b9e565b915061262182613179565b604082019050919050565b6000612639602e83612b9e565b9150612644826131c8565b604082019050919050565b600061265c602083612b9e565b915061266782613217565b602082019050919050565b600061267f603183612b9e565b915061268a82613240565b604082019050919050565b60006126a2602c83612b9e565b91506126ad8261328f565b604082019050919050565b60006126c5602083612b9e565b91506126d0826132de565b602082019050919050565b60006126e8602f83612b9e565b91506126f382613307565b604082019050919050565b600061270b602183612b9e565b915061271682613356565b604082019050919050565b600061272e603183612b9e565b9150612739826133a5565b604082019050919050565b6000612751600e83612b9e565b915061275c826133f4565b602082019050919050565b61277081612cdf565b82525050565b6000612782828461247a565b915081905092915050565b6000612799828561247a565b91506127a5828461247a565b91508190509392505050565b60006020820190506127c660008301846123ea565b92915050565b60006080820190506127e160008301876123ea565b6127ee60208301866123ea565b6127fb6040830185612767565b818103606083015261280d8184612408565b905095945050505050565b600060208201905061282d60008301846123f9565b92915050565b6000602082019050818103600083015261284d8184612441565b905092915050565b6000602082019050818103600083015261286e816124ab565b9050919050565b6000602082019050818103600083015261288e816124ce565b9050919050565b600060208201905081810360008301526128ae816124f1565b9050919050565b600060208201905081810360008301526128ce81612514565b9050919050565b600060208201905081810360008301526128ee81612537565b9050919050565b6000602082019050818103600083015261290e8161255a565b9050919050565b6000602082019050818103600083015261292e8161257d565b9050919050565b6000602082019050818103600083015261294e816125a0565b9050919050565b6000602082019050818103600083015261296e816125c3565b9050919050565b6000602082019050818103600083015261298e816125e6565b9050919050565b600060208201905081810360008301526129ae81612609565b9050919050565b600060208201905081810360008301526129ce8161262c565b9050919050565b600060208201905081810360008301526129ee8161264f565b9050919050565b60006020820190508181036000830152612a0e81612672565b9050919050565b60006020820190508181036000830152612a2e81612695565b9050919050565b60006020820190508181036000830152612a4e816126b8565b9050919050565b60006020820190508181036000830152612a6e816126db565b9050919050565b60006020820190508181036000830152612a8e816126fe565b9050919050565b60006020820190508181036000830152612aae81612721565b9050919050565b60006020820190508181036000830152612ace81612744565b9050919050565b6000602082019050612aea6000830184612767565b92915050565b6000612afa612b0b565b9050612b068282612d5d565b919050565b6000604051905090565b600067ffffffffffffffff821115612b3057612b2f612e95565b5b612b3982612ec4565b9050602081019050919050565b600067ffffffffffffffff821115612b6157612b60612e95565b5b612b6a82612ec4565b9050602081019050919050565b600081519050919050565b600081519050919050565b600082825260208201905092915050565b600082825260208201905092915050565b600081905092915050565b6000612bc582612cdf565b9150612bd083612cdf565b9250827fffffffffffffffffffffffffffffffffffffffffffffffffffffffffffffffff03821115612c0557612c04612e08565b5b828201905092915050565b6000612c1b82612cdf565b9150612c2683612cdf565b925082612c3657612c35612e37565b5b828204905092915050565b6000612c4c82612cdf565b9150612c5783612cdf565b925082821015612c6a57612c69612e08565b5b828203905092915050565b6000612c8082612cbf565b9050919050565b60008115159050919050565b60007fffffffff0000000000000000000000000000000000000000000000000000000082169050919050565b600073ffffffffffffffffffffffffffffffffffffffff82169050919050565b6000819050919050565b82818337600083830152505050565b60005b83811015612d16578082015181840152602081019050612cfb565b83811115612d25576000848401525b50505050565b60006002820490506001821680612d4357607f821691505b60208210811415612d5757612d56612e66565b5b50919050565b612d6682612ec4565b810181811067ffffffffffffffff82111715612d8557612d84612e95565b5b80604052505050565b6000612d9982612cdf565b91507fffffffffffffffffffffffffffffffffffffffffffffffffffffffffffffffff821415612dcc57612dcb612e08565b5b600182019050919050565b6000612de282612cdf565b9150612ded83612cdf565b925082612dfd57612dfc612e37565b5b828206905092915050565b7f4e487b7100000000000000000000000000000000000000000000000000000000600052601160045260246000fd5b7f4e487b7100000000000000000000000000000000000000000000000000000000600052601260045260246000fd5b7f4e487b7100000000000000000000000000000000000000000000000000000000600052602260045260246000fd5b7f4e487b7100000000000000000000000000000000000000000000000000000000600052604160045260246000fd5b6000601f19601f8301169050919050565b7f4552433732313a207472616e7366657220746f206e6f6e20455243373231526560008201527f63656976657220696d706c656d656e7465720000000000000000000000000000602082015250565b7f4f776e61626c653a206e6577206f776e657220697320746865207a65726f206160008201527f6464726573730000000000000000000000000000000000000000000000000000602082015250565b7f4552433732313a207472616e736665722066726f6d20696e636f72726563742060008201527f6f776e6572000000000000000000000000000000000000000000000000000000602082015250565b7f4552433732313a20746f6b656e20616c7265616479206d696e74656400000000600082015250565b7f4552433732313a207472616e7366657220746f20746865207a65726f2061646460008201527f7265737300000000000000000000000000000000000000000000000000000000602082015250565b7f4e465420616c7265616479206d696e7465640000000000000000000000000000600082015250565b7f4552433732313a20617070726f766520746f2063616c6c657200000000000000600082015250565b7f4552433732313a206f70657261746f7220717565727920666f72206e6f6e657860008201527f697374656e7420746f6b656e0000000000000000000000000000000000000000602082015250565b7f4552433732313a20617070726f76652063616c6c6572206973206e6f74206f7760008201527f6e6572206e6f7220617070726f76656420666f7220616c6c0000000000000000602082015250565b7f4552433732313a2062616c616e636520717565727920666f7220746865207a6560008201527f726f206164647265737300000000000000000000000000000000000000000000602082015250565b7f4552433732313a206f776e657220717565727920666f72206e6f6e657869737460008201527f656e7420746f6b656e0000000000000000000000000000000000000000000000602082015250565b7f45524337323155524953746f726167653a2055524920736574206f66206e6f6e60008201527f6578697374656e7420746f6b656e000000000000000000000000000000000000602082015250565b7f4552433732313a206d696e7420746f20746865207a65726f2061646472657373600082015250565b7f45524337323155524953746f726167653a2055524920717565727920666f722060008201527f6e6f6e6578697374656e7420746f6b656e000000000000000000000000000000602082015250565b7f4552433732313a20617070726f76656420717565727920666f72206e6f6e657860008201527f697374656e7420746f6b656e0000000000000000000000000000000000000000602082015250565b7f4f776e61626c653a2063616c6c6572206973206e6f7420746865206f776e6572600082015250565b7f4552433732314d657461646174613a2055524920717565727920666f72206e6f60008201527f6e6578697374656e7420746f6b656e0000000000000000000000000000000000602082015250565b7f4552433732313a20617070726f76616c20746f2063757272656e74206f776e6560008201527f7200000000000000000000000000000000000000000000000000000000000000602082015250565b7f4552433732313a207472616e736665722063616c6c6572206973206e6f74206f60008201527f776e6572206e6f7220617070726f766564000000000000000000000000000000602082015250565b7f4e65656420746f20706179207570000000000000000000000000000000000000600082015250565b61342681612c75565b811461343157600080fd5b50565b61343d81612c87565b811461344857600080fd5b50565b61345481612c93565b811461345f57600080fd5b50565b61346b81612cdf565b811461347657600080fd5b5056fea2646970667358221220963dc98635308d362ae1f7c5bbe5b05bf9d188b95015ef8bb4c42e9658e1e8ed64736f6c63430008040033",
  "linkReferences": {},
  "deployedLinkReferences": {}
}